:020000040800F2
:100000000080002069180008B9130008C713000811
:10001000CD130008D3130008D91300080000000016
:10002000000000000000000000000000DF130008D6
:10003000ED13000800000000FB130008091400087D
:10004000B9180008B9180008B9180008B91800084C
:10005000B9180008B9180008B9180008B91800083C
:10006000B9180008B9180008B9180008B91800082C
:10007000B9180008B9180008B9180008B91800081C
:10008000B918000800000000B9180008B9180008E5
:10009000B9180008B9180008B918000815140008A4
:1000A000B9180008B9180008B9180008B9180008EC
:1000B000B918000831140008B9180008B918000868
:1000C000B9180008B9180008B91800085914000830
:1000D000B9180008B9180008B9180008B9180008BC
:1000E000B9180008B9180008B9180008B9180008AC
:1000F000B9180008B9180008B91800080000000075
:1001000000000000B918000800000000B91800083D
:10011000B918000800000000B9180008B918000854
:10012000B9180008B9180008B9180008B91800086B
:10013000B91800080000000000000000B91800080D
:10014000B9180008B91800080000000000000000FD
:10015000000000000000000000000000000000009F
:10016000000000000000000000000000B9180008B6
:10017000B9180008000000000000000000000000A6
:1001800000000000B9180008000000000000000096
:10019000000000000000000000000000000000005F
:1001A0000000000000000000B9180008B91800089D
:1001B000B9180008B9180008B918000800000000B4
:1001C00000000000B9180008000000000000000056
:0801D000B9180008B918000875
:1001E00010B5054C237833B9044B13B10448AFF371
:1001F00000800123237010BD0002002000000000D9
:100200001C6F000808B5034B1BB103490348AFF34B
:10021000008008BD00000000040200201C6F0008E0
:10022000034613F8012B002AFBD1181A0138704736
:1002300001F0FF01102A2BDB10F0070F08D010F897
:10024000013B013A8B422DD010F0070F42B3F6D19B
:10025000F0B441EA012141EA014122F007047FF0B4
:1002600000070023F0E80256083C85EA010586EA0B
:10027000010685FA47F5A3FA87F586FA47F6A5FA47
:1002800087F68EB9EED1F0BC01F0FF0102F0070253
:1002900032B110F8013B013A83EA010313B1F8D1FE
:1002A0000020704701387047002D06BF35460338DF
:1002B000073815F0010F07D1013015F4807F02BF18
:1002C000013015F4C03F0130F0BC0138704700BF69
:1002D00081F0004102E000BF83F0004330B54FEAF7
:1002E00041044FEA430594EA050F08BF90EA020F64
:1002F0001FBF54EA000C55EA020C7FEA645C7FEAF7
:10030000655C00F0E2804FEA5454D4EB5555B8BF19
:100310006D420CDD2C4480EA020281EA030382EA8A
:10032000000083EA010180EA020281EA0303362D1C
:1003300088BF30BD11F0004F4FEA01314FF4801CEF
:100340004CEA113102D0404261EB410113F0004F01
:100350004FEA03334CEA133302D0524263EB4303B8
:1003600094EA050F00F0A780A4F10104D5F1200E56
:100370000DDB02FA0EFC22FA05F2801841F10001B1
:1003800003FA0EF2801843FA05F359410EE0A5F185
:1003900020050EF1200E012A03FA0EFC28BF4CF0B6
:1003A000020C43FA05F3C01851EBE37101F000456C
:1003B00007D54FF0000EDCF1000C7EEB00006EEB79
:1003C0000101B1F5801F1BD3B1F5001F0CD3490803
:1003D0005FEA30004FEA3C0C04F101044FEA44525A
:1003E00012F5800F80F09A80BCF1004F08BF5FEAE1
:1003F000500C50F1000041EB045141EA050130BDC1
:100400005FEA4C0C404141EB0101013C28BFB1F5D2
:10041000801FE9D291F0000F04BF01460020B1FA1D
:1004200081F308BF2033A3F10B03B3F120020CDAF0
:100430000C3208DD02F1140CC2F10C0201FA0CF0CE
:1004400021FA02F10CE002F11402D8BFC2F1200C33
:1004500001FA02F120FA0CFCDCBF41EA0C019040E9
:10046000E41AA2BF01EB0451294330BD6FEA040432
:100470001F3C1CDA0C340EDC04F11404C4F120021D
:1004800020FA04F001FA02F340EA030021FA04F32F
:1004900045EA030130BDC4F10C04C4F1200220FA86
:1004A00002F001FA04F340EA0300294630BD21FAC4
:1004B00004F0294630BD94F0000F83F4801306BF8A
:1004C00081F480110134013D4EE77FEA645C18BF7E
:1004D0007FEA655C29D094EA050F08BF90EA020F15
:1004E00005D054EA000C04BF1946104630BD91EA0D
:1004F000030F1EBF0021002030BD5FEA545C05D110
:100500004000494128BF41F0004130BD14F580044E
:100510003CBF01F5801130BD01F0004545F0FE41C2
:1005200041F470014FF0000030BD7FEA645C1ABFF7
:10053000194610467FEA655C1CBF0B46024650EA2E
:10054000013406BF52EA033591EA030F41F400215A
:1005500030BD00BF90F0000F04BF0021704730B5E0
:100560004FF4806404F132044FF000054FF00001B5
:1005700050E700BF90F0000F04BF0021704730B576
:100580004FF4806404F1320410F0004548BF40424B
:100590004FF000013EE700BF42004FEAE2014FEAA0
:1005A00031014FEA02701FBF12F07F4393F07F4F7B
:1005B00081F06051704732F07F4208BF704793F07E
:1005C0007F4F04BF41F40021704730B54FF4607491
:1005D00001F0004521F000411CE700BF50EA010294
:1005E00008BF704730B54FF000050AE050EA01023D
:1005F00008BF704730B511F0004502D5404261EBAD
:1006000041014FF4806404F132045FEA915C3FF4ED
:10061000D8AE4FF003025FEADC0C18BF03325FEA8A
:10062000DC0C18BF033202EBDC02C2F1200300FA3B
:1006300003FC20FA02F001FA03FE40EA0E0021FA60
:1006400002F11444BDE600BF70B54FF0FF0C4CF44E
:10065000E06C1CEA11541DBF1CEA135594EA0C0F00
:1006600095EA0C0F00F0DEF82C4481EA030621EA3B
:100670004C5123EA4C5350EA013518BF52EA033576
:1006800041F4801143F4801338D0A0FB02CE4FF028
:100690000005E1FB02E506F00042E0FB03E54FF058
:1006A0000006E1FB03569CF0000F18BF4EF0010E50
:1006B000A4F1FF04B6F5007F64F5407404D25FEA4C
:1006C0004E0E6D4146EB060642EAC62141EA5551FF
:1006D0004FEAC52040EA5E504FEACE2EB4F1FD0C41
:1006E00088BFBCF5E06F1ED8BEF1004F08BF5FEABF
:1006F000500E50F1000041EB045170BD06F0004671
:1007000046EA010140EA020081EA0301B4EB5C041D
:10071000C2BFD4EB0C0541EA045170BD41F4801115
:100720004FF0000E013C00F3AB8014F1360FDEBF3A
:10073000002001F0004170BDC4F10004203C35DA16
:100740000C341BDC04F11404C4F1200500FA05F399
:1007500020FA04F001FA05F240EA020001F000423A
:1007600021F0004110EBD37021FA04F642EB0601B0
:100770005EEA430E08BF20EAD37070BDC4F10C04DA
:10078000C4F1200500FA04F320FA05F001FA04F29E
:1007900040EA020001F0004110EBD37041F100018A
:1007A0005EEA430E08BF20EAD37070BDC4F1200595
:1007B00000FA05F24EEA020E20FA04F301FA05F2FD
:1007C00043EA020321FA04F001F0004121FA04F2A5
:1007D00020EA020000EBD3705EEA430E08BF20EA75
:1007E000D37070BD94F0000F0FD101F000464000AF
:1007F00041EB010111F4801F08BF013CF7D041EA31
:10080000060195F0000F18BF704703F00046520034
:1008100043EB030313F4801F08BF013DF7D043EA05
:100820000603704794EA0C0F0CEA135518BF95EABB
:100830000C0F0CD050EA410618BF52EA4306D1D142
:1008400081EA030101F000414FF0000070BD50EA61
:10085000410606BF1046194652EA430619D094EAEB
:100860000C0F02D150EA013613D195EA0C0F05D1D5
:1008700052EA03361CBF104619460AD181EA030129
:1008800001F0004141F0FE4141F470014FF00000E1
:1008900070BD41F0FE4141F4780170BD70B54FF07C
:1008A000FF0C4CF4E06C1CEA11541DBF1CEA1355FC
:1008B00094EA0C0F95EA0C0F00F0A7F8A4EB0504DE
:1008C00081EA030E52EA03354FEA013100F08880D5
:1008D0004FEA03334FF0805545EA131343EA12639E
:1008E0004FEA022245EA111545EA10654FEA002653
:1008F0000EF000419D4208BF964244F1FD0404F50C
:10090000407402D25B084FEA3202B61A65EB030567
:100910005B084FEA32024FF480104FF4002CB6EB24
:10092000020E75EB030E22BFB61A754640EA0C00A4
:100930005B084FEA3202B6EB020E75EB030E22BFE4
:10094000B61A754640EA5C005B084FEA3202B6EB25
:10095000020E75EB030E22BFB61A754640EA9C00E4
:100960005B084FEA3202B6EB020E75EB030E22BFB4
:10097000B61A754640EADC0055EA060E18D04FEA72
:10098000051545EA16754FEA06164FEAC30343EA12
:1009900052734FEAC2025FEA1C1CC0D111F4801FDF
:1009A0000BD141EA00014FF000004FF0004CB6E7D8
:1009B00011F4801F04BF01430020B4F1FD0C88BF77
:1009C000BCF5E06F3FF6AFAEB5EB030C04BFB6EB82
:1009D000020C5FEA500C50F1000041EB045170BD75
:1009E0000EF0004E4EEA113114EB5C04C2BFD4EBA2
:1009F0000C0541EA045170BD41F480114FF0000E26
:100A0000013C90E645EA060E8DE60CEA135594EAA1
:100A10000C0F08BF95EA0C0F3FF43BAF94EA0C0FA4
:100A20000AD150EA01347FF434AF95EA0C0F7FF419
:100A300025AF104619462CE795EA0C0F06D152EA6D
:100A400003353FF4FDAE1046194622E750EA410651
:100A500018BF52EA43067FF4C5AE50EA41047FF462
:100A60000DAF52EA43057FF4EBAE12E74FF0FF3CC7
:100A700006E000BF4FF0010C02E000BF4FF0010C98
:100A80004DF804CD4FEA410C7FEA6C5C4FEA430C11
:100A900018BF7FEA6C5C1BD001B050EA410C0CBF60
:100AA00052EA430C91EA030F02BF90EA020F0020C2
:100AB000704710F1000F91EA030F58BF994208BF29
:100AC00090422CBFD8176FEAE37040F001007047E6
:100AD0004FEA410C7FEA6C5C02D150EA013C07D13D
:100AE0004FEA430C7FEA6C5CD6D152EA033CD3D088
:100AF0005DF8040B704700BF8446104662468C4682
:100B00001946634600E000BF01B5FFF7B7FF0028B4
:100B100048BF10F1000F01BD4DF808EDFFF7F4FFDD
:100B20000CBF012000205DF808FB00BF4DF808ED68
:100B3000FFF7EAFF34BF012000205DF808FB00BF8B
:100B40004DF808EDFFF7E0FF94BF012000205DF8AD
:100B500008FB00BF4DF808EDFFF7CEFF94BF012062
:100B600000205DF808FB00BF4DF808EDFFF7C4FF5B
:100B700034BF012000205DF808FB00BF4FEA410CA4
:100B80007FEA6C5C02D150EA013C0AD14FEA430C87
:100B90007FEA6C5C02D152EA033C02D14FF00000C4
:100BA00070474FF0010070474FEA410212F5001202
:100BB00015D211D56FF47873B3EB625212D94FEAA4
:100BC000C12343F0004343EA505311F0004F23FA8E
:100BD00002F018BF404270474FF00000704750EAE3
:100BE000013005D111F0004008BF6FF000407047A0
:100BF0004FF00000704700BF4FEA4102B2F1E043FE
:100C000024BFB3F5001CDCF1FE5C0DD901F0004CF3
:100C10004FEAC0024CEA5070B2F1004F40EB830043
:100C200008BF20F00100704711F0804F21D113F16F
:100C30003872BCBF01F00040704741F480114FEAA8
:100C40005252C2F11802C2F1200C10FA0CF320FA31
:100C500002F018BF40F001004FEAC1234FEAD3234E
:100C600003FA0CFC40EA0C0023FA02F34FEA4303B8
:100C7000CCE77FEA625307D150EA01331EBF4FF041
:100C8000FE4040F44000704701F0004040F0FE405C
:100C900040F40000704700BF80B58AB000AF07F194
:100CA000140300221A605A609A60DA601A61514B8C
:100CB000DB6C504A43F02003D3644E4BDB6C03F0F3
:100CC00020033B613B694B4BDB6C4A4A43F04003DA
:100CD000D364484BDB6C03F04003FB60FB68454B7F
:100CE000DB6C444A43F00103D364424BDB6C03F0FA
:100CF0000103BB60BB683F4BDB6C3E4A43F0020321
:100D0000D3643C4BDB6C03F002037B607B68002206
:100D10000321394801F0C2FB002240F2011137489B
:100D200001F0BCFB03237B610123BB610023FB615A
:100D300000233B6207F1140319462F4801F02CFAF7
:100D40004FF480637B610323BB610023FB6107F1E8
:100D5000140319462A4801F01FFA49F60F737B6104
:100D60000323BB610023FB6107F1140319464FF015
:100D7000904001F011FA40F201137B610123BB6145
:100D80000023FB6100233B6207F1140319461B4853
:100D900001F002FA10237B610323BB610023FB6196
:100DA00007F114031946154801F0F6F960237B6139
:100DB000144BBB610023FB6107F1140319460F4874
:100DC00001F0EAF980237B610E4BBB610123FB61DB
:100DD00007F114031946094801F0DEF90022002149
:100DE000172000F0D8FE172000F0EFFE00BF2837D4
:100DF000BD4680BD001002400014004800040048B9
:100E0000001800480000111080B483B000AF786073
:100E10007B681B6843F001027B681A6000BF0C37D7
:100E2000BD465DF8047B704780B483B000AF786046
:100E30007B686FF001021A6100BF0C37BD465DF898
:100E4000047B704780B483B000AF78607B68DB6858
:100E500043F001027B68DA6000BF0C37BD465DF8E5
:100E6000047B704780B582B000AF78607B681A68F9
:100E7000074B1B689A4207D10C220649044802F02E
:100E8000C5FC054B01221A7000BF0837BD4680BD66
:100E900040020020340200202402002080B582B0ED
:100EA00000AF0346FB80FB88802B1AD0802B1EDC12
:100EB000202B02D0402B0AD019E001210E4801F06E
:100EC00005FB0E4B1B6801330C4A13600FE0022137
:100ED000094801F0FBFA0A4B1B680133084A13600A
:100EE00005E04FF48071074801F0F0FA00BF00BF41
:100EF0000837BD4680BD00BF001400481C0200201A
:100F0000200200200004004880B582B000AF87EDC9
:100F1000010A7868FFF740FB09A3D3E90023FFF734
:100F200093FB02460B4610461946FFF765FE034643
:100F300007EE903AB0EE670A0837BD4680BD00BFA5
:100F40006F1283C0CA21194080B483B000AF87ED0F
:100F5000010AC7ED000A97ED017AD7ED007AC7EED6
:100F6000276AF0EE667AB0EE670A0C37BD465DF888
:100F7000047B704780B483B000AF87ED010A38600E
:100F80003B6807EE903AB8EEE77AD7ED017A67EE64
:100F9000277AFDEEE77A17EE903A18460C37BD46F1
:100FA0005DF8047B704790B589B000AF786000F0C1
:100FB000E3FE0023FB6001233B613F237B610123B0
:100FC000BB6107F1080207F10C031146184600F057
:100FD000BFFF7C680023FB7712E0FB7F03F1006317
:100FE00003F5FC331946FB7FDB08DBB2DB0023444F
:100FF000D3E90023002000F069FEFB7F0833FB7774
:10100000FB7F182BE9D900F0D9FE00BF2437BD467D
:1010100090BD000098B500AF494A4A4B144607CB33
:1010200020606160A26000F048FC00F09FF8FFF7CC
:1010300033FE00F0D9FB00F0EBF84348FFF702FF66
:101040000C223F49414802F0E1FB642000F0A6FC7D
:101050003B4B5C6823461C46394B1B6800EE103A3C
:10106000FFF752FFF0EE407AF0EE670A00EE104A0A
:10107000FFF76AFFF0EE407A314B9B681846B0EEFE
:10108000670AFFF777FF0346314A13600C222C49A9
:101090002E4802F0BBFB2F4B1B78012B38D14FF4AD
:1010A0007A7304222649294802F074F84FF47A73BF
:1010B00004222949254802F06DF84FF47A7304227E
:1010C0002649224802F066F81D4B5C6823461C4600
:1010D0001B4B1B6800EE103AFFF716FFF0EE407A4C
:1010E000F0EE670A00EE104AFFF72EFFF0EE407AAE
:1010F000134B9B681846B0EE670AFFF73BFF0346A9
:10110000134A1360134B00221A700D48FFF74BFF70
:10111000134B1A680E4B1B689A42B7DB104B002228
:101120001A60104B00221A60012201210E4801F0C2
:10113000B5F90548FFF778FE0348FFF765FEA5E718
:101140003402002000F801080004004040020020A2
:1011500000000020240200203C0200203802002071
:101160001C020020200200200004004880B594B03A
:1011700000AF07F1180338220021184603F0F6F9F2
:101180003B1D00221A605A609A60DA601A610020E2
:1011900001F0CEF90223BB614FF480737B624023E0
:1011A000BB6202237B630223BB630223FB632A230C
:1011B0003B6402237B640223BB640223FB6407F1CC
:1011C0001803184601F058FA0346002B01D000F02E
:1011D00018F80F237B600323BB600023FB60002310
:1011E0003B6100237B613B1D0821184601F05CFD3B
:1011F0000346002B01D000F004F800BF5037BD4675
:1012000080BD80B400AF00BFBD465DF8047B704771
:1012100080B500AF184B194A1A60174B00225A606C
:10122000154B00229A60144B4FF4E062DA60124BC7
:1012300000221A61104B00225A610F4B00229A6162
:101240000D4B00221A620C4B00225A620A4B0022FC
:101250009A62094B0722DA62074B00221A63064B97
:1012600000225A63044801F003FF0346002B01D01B
:10127000FFF7C7FF00BF80BD4002002000300140E3
:1012800080B58AB000AF786007F1140300221A60BD
:101290005A609A60DA601A617B681B681B4A934245
:1012A00030D11B4B1B6E1A4A43F480531366184B04
:1012B0001B6E03F480533B613B69154BDB6C144A96
:1012C00043F00103D364124BDB6C03F00103FB60BA
:1012D000FB68F0237B610223BB610023FB610023D9
:1012E0003B6205237B6207F1140319464FF09040DF
:1012F00000F052FF00220021232000F04CFC2320AC
:1013000000F063FC00BF2837BD4680BD00300140BF
:101310000010024080B400AF054B9B68044A43F4C0
:101320008043936000BFBD465DF8047B704700BFFB
:101330000070004080B582B000AF0F4B1B6E0E4AAC
:1013400043F0010313660C4B1B6E03F001037B603B
:101350007B68094B9B6D084A43F080539365064BAD
:101360009B6D03F080533B603B68FFF7D3FF00BFEA
:101370000837BD4680BD00BF0010024080B483B076
:1013800000AF78607B681B6823F001027B681A60FD
:1013900000BF0C37BD465DF8047B704780B483B056
:1013A00000AF78607B686FF001021A6100BF0C37F4
:1013B000BD465DF8047B704780B400AF00BFBD46FA
:1013C0005DF8047B704780B400AFFEE780B400AFE7
:1013D000FEE780B400AFFEE780B400AFFEE780B464
:1013E00000AF00BFBD465DF8047B704780B400AF1E
:1013F00000BFBD465DF8047B704780B400AF00BFFE
:10140000BD465DF8047B704780B500AF00F0A8FAD8
:1014100000BF80BD80B500AF202001F071F84020F2
:1014200001F06EF8802001F06BF800BF80BD000075
:1014300080B500AF0648FFF7A1FF00220121054853
:1014400001F02CF80248FFF7A9FF00BF80BD00BFE4
:10145000000400400004004880B500AF024802F0DC
:101460002DFB00BF80BD00BF4002002080B400AF54
:1014700001231846BD465DF8047B704780B582B0F5
:1014800000AF7860396003F047F8034616221A600F
:101490004FF0FF3318460837BD4680BD80B582B097
:1014A00000AF78604FF0FF317868FFF7E7FFFEE7A5
:1014B00080B586B000AFF860B9607A6000237B61C8
:1014C0000AE0AFF300800146BB685A1CBA60CAB29A
:1014D0001A707B6901337B617A697B689A42F0DB21
:1014E0007B6818461837BD4680BD80B586B000AF12
:1014F000F860B9607A6000237B6109E0BB685A1C20
:10150000BA601B781846AFF300807B6901337B61BA
:101510007A697B689A42F1DB7B6818461837BD46CA
:1015200080BD80B483B000AF78604FF0FF331846C1
:101530000C37BD465DF8047B704780B483B000AFC4
:10154000786039603B684FF400525A6000231846B7
:101550000C37BD465DF8047B704780B483B000AFA4
:101560007860012318460C37BD465DF8047B704750
:1015700080B485B000AFF860B9607A600023184687
:101580001437BD465DF8047B7047000080B584B019
:1015900000AF7860114B1B68002B02D10F4B104A33
:1015A0001A600E4B1B68FB600C4B1A687B68134477
:1015B0006A46934207D902F0AFFF03460C221A6035
:1015C0004FF0FF3306E0054B1A687B681344034A6B
:1015D0001360FB6818461037BD4680BD2802002006
:1015E000B802002080B400AF084BD3F88830074A17
:1015F00043F47003C2F88830044B4FF000629A60E5
:1016000000BFBD465DF8047B704700BF00ED00E001
:1016100080B400AF044BDB681B0A03F007031846D5
:10162000BD465DF8047B704700ED00E080B483B0F8
:1016300000AF0346FB7197F90730002B0BDBFB79FA
:1016400003F01F02074997F907305B09012000FAF0
:1016500002F241F8232000BF0C37BD465DF8047B41
:10166000704700BF00E100E080B483B000AF0346E4
:101670003960FB7197F90730002B0ADB3B68DAB25F
:101680000C4997F907301201D2B20B4483F80023BA
:101690000AE03B68DAB20849FB7903F00F03043B28
:1016A0001201D2B20B441A7600BF0C37BD465DF86A
:1016B000047B704700E100E000ED00E080B489B0F9
:1016C00000AFF860B9607A60FB6803F00703FB6164
:1016D000FB69C3F10703042B28BF0423BB61FB692B
:1016E0000433062B02D9FB69033B00E000237B6136
:1016F0004FF0FF32BB6902FA03F3DA43BB681A40CA
:101700007B699A404FF0FF317B6901FA03F3D943BB
:101710007B680B40134318462437BD465DF8047BB5
:10172000704780B483B000AF78607B681B6823F09B
:1017300080027B681A6000BF0C37BD465DF8047BF1
:10174000704780B483B000AF786039607B689B6875
:1017500023F4A03323F007033A681A437B689A60A6
:1017600000BF0C37BD465DF8047B704780B483B082
:1017700000AF786039607B685B6823F0007323F00A
:1017800070033A681A437B685A6000BF0C37BD4645
:101790005DF8047B704780B483B000AF78607B68ED
:1017A0009B6823F080027B689A6000BF0C37BD46BF
:1017B0005DF8047B7047000080B485B000AF7860AE
:1017C000084B9A6D07497B6813438B65054B9A6DEF
:1017D0007B681340FB60FB6800BF1437BD465DF8B3
:1017E000047B70470010024080B586B000AF3B1DFF
:1017F00000221A605A609A60DA601A610220FFF7CC
:10180000DBFFFFF705FF0346002200211846FFF724
:1018100055FF034619461D20FFF726FF1D20FFF741
:1018200005FF44F29F13BB800023BB602C23FB60A9
:1018300000233B613B1D19460A4802F0E3FD0948BD
:10184000FFF76FFF00210748FFF77BFF20210548C6
:10185000FFF78CFF0348FFF79EFF00BF1837BD4618
:1018600080BD00BF000400400D4885460D480E496C
:101870000E4A002302E0D458C4500433C4188C42EA
:10188000F9D30B4A0B4C002301E013600432A2424F
:10189000FBD3FFF7A7FE02F045FEFFF7BBFBFEE719
:1018A00000800020000000200002002034730008A7
:1018B00000020020B8020020FEE780B582B000AF31
:1018C0000023FB71032000F05BF9002000F00EF80C
:1018D0000346002B02D00123FB7101E0FFF72AFD34
:1018E000FB7918460837BD4680BD000080B584B03E
:1018F00000AF78600023FB73164B1B68002B22D0CF
:10190000154B1A68134B1B684FF47A71B1FBF3F354
:10191000B2FBF3F3184600F066F90346002B0FD133
:101920007B680F2B09D8002279684FF0FF3000F058
:1019300032F90A4A7B68136007E00123FB7304E075
:101940000123FB7301E00123FB73FB7B1846103777
:10195000BD4680BD0C0000200400002008000020CF
:1019600080B400AF054B1A68054B1B681344034A4B
:10197000136000BFBD465DF8047B7047A4020020E1
:101980000C00002080B400AF034B1B681846BD4616
:101990005DF8047B704700BFA402002080B584B0CE
:1019A00000AF7860FFF7EEFFB8607B68FB60FB6814
:1019B000B3F1FF3F04D0094B1B68FA681344FB6086
:1019C00000BFFFF7DFFF0246BB68D31AFA689A42EE
:1019D000F7D800BF00BF1037BD4680BD0C00002007
:1019E00080B485B000AF78607B6803F00703FB60CC
:1019F0000C4BDB68BB60BA684FF6FF031340BB605B
:101A0000FB681A02BB68134343F0BF6343F400331F
:101A1000BB60044ABB68D36000BF1437BD465DF8A5
:101A2000047B704700ED00E080B400AF044BDB683E
:101A30001B0A03F007031846BD465DF8047B704798
:101A400000ED00E080B483B000AF0346FB7197F96E
:101A50000730002B0BDBFB7903F01F02074997F9D6
:101A600007305B09012000FA02F241F8232000BF91
:101A70000C37BD465DF8047B704700BF00E100E015
:101A800080B483B000AF03463960FB7197F907302B
:101A9000002B0ADB3B68DAB20C4997F907301201D8
:101AA000D2B20B4483F800230AE03B68DAB208495B
:101AB000FB7903F00F03043B1201D2B20B441A76F8
:101AC00000BF0C37BD465DF8047B704700E100E0C5
:101AD00000ED00E080B489B000AFF860B9607A60D2
:101AE000FB6803F00703FB61FB69C3F10703042BE9
:101AF00028BF0423BB61FB690433062B02D9FB69B1
:101B0000033B00E000237B614FF0FF32BB6902FA28
:101B100003F3DA43BB681A407B699A404FF0FF3108
:101B20007B6901FA03F3D9437B680B4013431846E2
:101B30002437BD465DF8047B7047000080B582B055
:101B400000AF78607B68013BB3F1807F01D3012354
:101B50000FE00A4A7B68013B53600F214FF0FF30D2
:101B6000FFF78EFF054B00229A60044B07221A6094
:101B7000002318460837BD4680BD00BF10E000E0D6
:101B800080B582B000AF78607868FFF729FF00BFAA
:101B90000837BD4680BD80B586B000AF0346B9604A
:101BA0007A60FB73FFF740FF78617A68B9687869FB
:101BB000FFF790FF024697F90F3011461846FFF7DE
:101BC0005FFF00BF1837BD4680BD80B582B000AF53
:101BD0000346FB7197F907301846FFF733FF00BF44
:101BE0000837BD4680BD80B582B000AF78607868A8
:101BF000FFF7A4FF034618460837BD4680BD80B5F1
:101C000084B000AF78600023FB737B6893F82530C5
:101C1000DBB2022B0DD07B680422DA637B680122E1
:101C200083F825207B68002283F824200123FB739E
:101C300047E07B681B681A687B681B6822F00E020D
:101C40001A607B681B681A687B681B6822F00102B7
:101C50001A607B689B6C1A687B689B6C22F48072AC
:101C60001A607B685B6C03F01F027B681B6C0121B0
:101C700001FA02F25A607B68DB6C7A68126D5A6076
:101C80007B685B6D002B0CD07B685B6D1A687B6892
:101C90005B6D22F480721A607B689B6D7A68D26DEE
:101CA0005A607B68012283F825207B68002283F834
:101CB00024207B689B6B002B03D07B689B6B786830
:101CC0009847FB7B18461037BD4680BD80B586B06F
:101CD00000AFF860B960C7E9002300233B61244BE3
:101CE0001B78012B01D102233EE0214B01221A7007
:101CF0004FF47A7000F07CF80346FB75FB7D002BF7
:101D00002ED11B4B00225A60FB68002B07D1D7E96C
:101D10000023B86800F0C0F801233B6110E0FB68C5
:101D2000012B02D0FB68022B0AD13B681946B86828
:101D300000F0D8F8FB68022B02D14FF480233B61FE
:101D40004FF47A7000F054F80346FB753B69002BA2
:101D500006D0084B5A693B69DB43064913404B6187
:101D6000034B00221A70FB7D18461837BD4680BD14
:101D7000100000200020024080B483B000AF002398
:101D8000FB710B4B5B69002B0BDA094B094A9A601C
:101D9000074B094A9A60064B5B69002B01DA012365
:101DA000FB71FB7918460C37BD465DF8047B704724
:101DB0000020024023016745AB89EFCD80B483B09A
:101DC00000AF0123FB71094B5B69084A43F00043F4
:101DD0005361064B5B69002B01DA0023FB71FB7931
:101DE00018460C37BD465DF8047B70470020024062
:101DF00080B584B000AF7860FFF7C4FDF86009E0FB
:101E0000FFF7C0FD0246FB68D31A7A689A4201D2F6
:101E1000032338E01E4B1B6903F48033B3F5803F86
:101E2000EED01B4B1A694CF2FA331340BB60BB680F
:101E3000002B1ED0174B5A68BB681343154A5360DA
:101E4000BB6803F04043002B07D0114B9A69BB6875
:101E500003F040430E4913438B61BB6823F04043BA
:101E6000002B04D00A4ABB6823F0404313610123CE
:101E700009E0074B1B6903F00103012B02D1044B5E
:101E800001221A61002318461037BD4680BD00BFED
:101E9000002002401000002080B485B000AFF86040
:101EA000C7E900230E4B5B690D4A43F00103536100
:101EB000FB683A681A60BFF36F8F00BFD7E9000173
:101EC0004FF000024FF000030A000023F9680431CC
:101ED00013460B6000BF1437BD465DF8047B7047A6
:101EE0000020024080B489B000AF786039604023A0
:101EF000FB777B68BB613B687B61144B5B69134A72
:101F000043F480235361EFF31083FB60FB683B6174
:101F100072B600BF7B691A68BB691A60BB6904337B
:101F2000BB617B6904337B61FB7F013BFB77FB7FFC
:101F3000002BEFD13B69BB60BB6883F3108800BF07
:101F400000BF2437BD465DF8047B70470020024087
:101F500080B584B000AF786039604A4B1B78012BA4
:101F600001D1022389E0474B01221A704FF47A70A5
:101F7000FFF73EFF0346FB73FB7B002B79D1414B00
:101F800000225A60404B1B6803F40073002B19D0E9
:101F90003D4B1B683C4A23F4007313603A4B1B68AB
:101FA00003F48063002B09D0374B1B68364A23F4B7
:101FB00080631360334B03221A7716E0314B012202
:101FC0001A7712E0304B1B6803F48063002B09D0B2
:101FD0002D4B1B682C4A23F480631360294B02228B
:101FE0001A7702E0274B00221A777B681B68012BC7
:101FF00011D17B685B68184600F048F84FF47A709E
:10200000FFF7F6FE0346FB731F4B5B691E4A23F086
:10201000040353612BE03B684FF0FF321A607B688A
:102020009B68BB601BE07B685B681946B86800F082
:102030004BF84FF47A70FFF7DBFE0346FB73124B4D
:102040005B69114A23F4FD735361FB7B002B03D0C2
:102050003B68BA681A600AE0BB680133BB607B6802
:102060009A687B68DB681344BA689A42DBD300F055
:102070004FF8044B00221A70FB7B18461037BD4600
:1020800080BD00BF100000200020024080B483B05B
:1020900000AF78607B6803F00103002B05D0094B8B
:1020A0005B69084A43F004035361064B5B69054AC8
:1020B00043F48033536100BF0C37BD465DF8047BA9
:1020C000704700BF0020024080B483B000AF78604A
:1020D00039600E4B5B6923F4FC727B68DB0003F410
:1020E000FF630A4913434B61084B5B69074A43F09E
:1020F00002035361054B5B69044A43F48033536127
:1021000000BF0C37BD465DF8047B704700200240DD
:1021100080B483B000AF1E4B1B7FFB71FB79012B9A
:1021200002D0FB79032B11D11A4B1B68194A43F4D7
:1021300000631360174B1B68164A23F40063136097
:10214000144B1B68134A43F400731360FB79022B92
:1021500002D0FB79032B11D10E4B1B680D4A43F4BF
:10216000805313600B4B1B680A4A23F4805313609F
:10217000084B1B68074A43F480631360044B00223A
:102180001A7700BF0C37BD465DF8047B704700BF6F
:10219000100000200020024080B487B000AF7860BB
:1021A000396000237B615AE13B681A6801217B6931
:1021B00001FA03F31340FB60FB68002B00F04C8135
:1021C0003B685B68012B0BD03B685B68022B07D038
:1021D0003B685B68112B03D03B685B68122B30D1E6
:1021E0007B689B683B617B695B00032202FA03F317
:1021F000DB433A6913403B613B68DA687B695B000B
:1022000002FA03F33A6913433B617B683A699A60C7
:102210007B685B683B6101227B6902FA03F3DB4365
:102220003A6913403B613B685B681B0903F001029C
:102230007B6902FA03F33A6913433B617B683A69AD
:102240005A607B68DB683B617B695B00032202FAB2
:1022500003F3DB433A6913403B613B689A687B694F
:102260005B0002FA03F33A6913433B617B683A6906
:10227000DA603B685B68022B03D03B685B68122B1B
:1022800023D17B69DA087B68083253F822303B613E
:102290007B6903F007039B000F2202FA03F3DB4381
:1022A0003A6913403B613B681A697B6903F0070395
:1022B0009B0002FA03F33A6913433B617B69DA0836
:1022C0007B680832396943F822107B681B683B61E0
:1022D0007B695B00032202FA03F3DB433A69134094
:1022E0003B613B685B6803F003027B695B0002FAB9
:1022F00003F33A6913433B617B683A691A603B68B0
:102300005B6803F08053002B00F0A6805B4B1B6ED4
:102310005A4A43F001031366584B1B6E03F0010346
:10232000BB60BB68564A7B699B08023352F8233076
:102330003B617B6903F003039B000F2202FA03F366
:10234000DB433A6913403B617B68B3F1904F1FD088
:102350007B684C4A934219D07B684B4A934213D016
:102360007B684A4A93420DD07B68494A934207D022
:102370007B68484A934201D105230AE0062308E01E
:10238000042306E0032304E0022302E0012300E02B
:1023900000237A6902F00302920093403A691343E2
:1023A0003B6137497B699B0802333A6941F8232036
:1023B000394B1B683B61FB68DB433A6913403B6167
:1023C0003B685B6803F48033002B03D03A69FB68F9
:1023D00013433B61304A3B6913602F4B5B683B61A1
:1023E000FB68DB433A6913403B613B685B6803F47D
:1023F0000033002B03D03A69FB6813433B61264A44
:102400003B695360244B9B683B61FB68DB433A6943
:1024100013403B613B685B6803F48013002B03D0DF
:102420003A69FB6813433B611B4A3B6993601A4B53
:10243000DB683B61FB68DB433A6913403B613B6807
:102440005B6803F40013002B03D03A69FB68134365
:102450003B61114A3B69D3607B6901337B613B6817
:102460001A687B6922FA03F3002B7FF49DAE00BF4C
:1024700000BF1C37BD465DF8047B7047001002406A
:10248000000001400004004800080048000C00481B
:1024900000100048001400480004014080B483B0DC
:1024A00000AF78600B467B8013467B707B78002BF7
:1024B00003D07A887B689A6102E07A887B689A62A6
:1024C00000BF0C37BD465DF8047B704780B483B015
:1024D00000AF78600B467B807B685A697B8813402D
:1024E000002B03D07A887B689A6202E07A887B6846
:1024F0009A6100BF0C37BD465DF8047B7047000051
:1025000080B582B000AF0346FB80084B5A69FB8858
:102510001340002B06D0054AFB885361FB88184600
:10252000FEF7BCFC00BF0837BD4680BD000401407B
:1025300080B485B000AF78607B68002B41D14B4BF5
:102540001B6803F4C063B3F5806F31D1474BD3F8F8
:102550008030464A23F48073C2F88030434B1B68B6
:1025600023F4C063414A43F400731360404B1B687B
:10257000322202FB03F33F4AA2FB03239B0C0133ED
:10258000FB6002E0FB68013BFB60384B5B6903F4D6
:102590008063B3F5806F02D1FB68002BF2D1334B1F
:1025A0005B6903F48063B3F5806F58D1032357E070
:1025B0002E4BD3F880302D4A23F48073C2F880303C
:1025C0004DE07B68B3F5007F41D1284B1B6803F4D5
:1025D000C063B3F5806F31D1244BD3F88030234AE8
:1025E00043F48073C2F88030204B1B6823F4C0632F
:1025F0001E4A43F4007313601D4B1B68322202FB1A
:1026000003F31C4AA2FB03239B0C0133FB6002E093
:10261000FB68013BFB60154B5B6903F48063B3F51A
:10262000806F02D1FB68002BF2D1104B5B6903F481
:102630008063B3F5806F12D1032311E00B4BD3F805
:1026400080300A4A43F48073C2F8803007E0074BB9
:102650001B6823F4C063054A43F4806313600023BE
:1026600018461437BD465DF8047B70470070004083
:102670000400002083DE1B4380B588B000AF786083
:102680007B68002B01D1012308E37B681B6803F002
:102690000103002B75D0A34B9B6803F00C03BB61B7
:1026A000A04BDB6803F003037B61BB690C2B02D1F9
:1026B0007B69032B02D0BB69082B0BD1994B1B689C
:1026C00003F40033002B5BD07B685B68002B57D191
:1026D0000123E3E27B685B68B3F5803F06D1914B51
:1026E0001B68904A43F4803313601DE07B685B688D
:1026F000B3F5A02F0CD18B4B1B688A4A43F480237F
:102700001360884B1B68874A43F4803313600BE0E7
:10271000844B1B68834A23F480331360814B1B680E
:10272000804A23F4802313607B685B68002B13D0FE
:10273000FFF728F9386108E0FFF724F902463B6902
:10274000D31A642B01D90323A8E2764B1B6803F448
:102750000033002BF0D014E0FFF714F9386108E0E3
:10276000FFF710F902463B69D31A642B01D9032302
:1027700094E26C4B1B6803F40033002BF0D100E0B3
:1027800000BF7B681B6803F00203002B75D0654B0C
:102790009B6803F00C03BB61624BDB6803F003032F
:1027A0007B61BB690C2B02D17B69022B02D0BB6918
:1027B000042B1FD15B4B1B6803F48063002B05D0F7
:1027C0007B68DB68002B01D1012367E2554B5B6816
:1027D00023F0FE427B681B691B06524913434B6082
:1027E000514B1B681846FFF781F80346002B43D076
:1027F000012353E27B68DB68002B23D0494B1B6825
:10280000484A43F480731360FFF7BCF8386108E06E
:10281000FFF7B8F802463B69D31A022B01D903230C
:102820003CE2404B1B6803F48063002BF0D03D4B2F
:102830005B6823F0FE427B681B691B063949134322
:102840004B601AE0374B1B68364A23F480731360E1
:10285000FFF798F8386108E0FFF794F802463B6903
:10286000D31A022B01D9032318E22E4B1B6803F461
:102870008063002BF0D100E000BF7B681B6803F091
:102880000803002B3CD07B685B69002B1CD0254BD8
:10289000D3F89430234A43F00103C2F89430FFF791
:1028A00071F8386108E0FFF76DF802463B69D31A0A
:1028B000022B01D90323F1E11A4BD3F8943003F032
:1028C0000203002BEFD01BE0164BD3F89430154ACF
:1028D00023F00103C2F89430FFF754F8386108E0A0
:1028E000FFF750F802463B69D31A022B01D90323A4
:1028F000D4E10C4BD3F8943003F00203002BEFD15A
:102900007B681B6803F00403002B00F0AB800023FE
:10291000FB77044B9B6D03F08053002B06D1012302
:1029200005E000BF00100240080000200023002B3B
:102930000DD0AF4B9B6DAE4A43F080539365AC4BCB
:102940009B6D03F08053FB60FB680123FB77A94B71
:102950001B6803F48073002B18D1A64B1B68A54A93
:1029600043F480731360FFF70DF8386108E0FFF758
:1029700009F802463B69D31A022B01D903238DE1E2
:102980009C4B1B6803F48073002BF0D07B689B6822
:10299000012B08D1964BD3F89030954A43F00103B0
:1029A000C2F8903024E07B689B68052B10D1904BD7
:1029B000D3F890308E4A43F00403C2F890308C4B29
:1029C000D3F890308A4A43F00103C2F890300FE008
:1029D000874BD3F89030864A23F00103C2F8903039
:1029E000834BD3F89030824A23F00403C2F890302E
:1029F0007B689B68002B16D0FEF7C4FF38610AE0A5
:102A0000FEF7C0FF02463B69D31A41F28832934277
:102A100001D9032342E1764BD3F8903003F002034F
:102A2000002BEDD015E0FEF7ADFF38610AE0FEF7B0
:102A3000A9FF02463B69D31A41F28832934201D979
:102A400003232BE16A4BD3F8903003F00203002BF1
:102A5000EDD1FB7F012B05D1654B9B6D644A23F0C3
:102A6000805393657B681B6803F02003002B3CD0E8
:102A70007B689B69002B1CD05D4BD3F898305C4A77
:102A800043F00103C2F89830FEF77CFF386108E09C
:102A9000FEF778FF02463B69D31A022B01D90323C4
:102AA000FCE0534BD3F8983003F00203002BEFD037
:102AB0001BE04F4BD3F898304D4A23F00103C2F886
:102AC0009830FEF75FFF386108E0FEF75BFF0246D3
:102AD0003B69D31A022B01D90323DFE0444BD3F81F
:102AE000983003F00203002BEFD17B68DB69002BE9
:102AF00000F0D3803E4B9B6803F00C030C2B00F0DE
:102B00008D807B68DB69022B5AD1394B1B68384AB0
:102B100023F080731360FEF735FF386108E0FEF79D
:102B200031FF02463B69D31A022B01D90323B5E0DA
:102B30002F4B1B6803F00073002BF0D12C4BDA688D
:102B40002D4B13407A68116A7A68526A013A120171
:102B500011437A68926A120211437A68126B520822
:102B6000013A520511437A68526B5208013A5206F3
:102B700011437A68D26AD2060A431D491343CB60D7
:102B80001B4B1B681A4A43F080731360184BDB68B9
:102B9000174A43F08073D360FEF7F4FE386108E013
:102BA000FEF7F0FE02463B69D31A022B01D903233C
:102BB00074E00F4B1B6803F00073002BF0D06CE047
:102BC0000B4B1B680A4A23F080731360084BDB68C9
:102BD000074A23F00303D360054BDB68044A23F064
:102BE000887323F48033D360FEF7CCFE38610EE0A7
:102BF00000100240007000400C809F01FEF7C2FEF2
:102C000002463B69D31A022B01D9032346E0254B28
:102C10001B6803F00073002BF0D13EE07B68DB699A
:102C2000012B01D1012339E01E4BDB687B617B69FD
:102C300003F003027B681B6A9A422CD17B6903F084
:102C4000F0027B685B6A013B1B019A4223D17B69DE
:102C500003F4FE427B689B6A1B029A421BD17B698C
:102C600003F078427B68DB6ADB069A4213D17B690A
:102C700003F4C0027B681B6B5B08013B5B059A4257
:102C800009D17B6903F0C0627B685B6B5B08013B29
:102C90005B069A4201D0012300E00023184620374A
:102CA000BD4680BD0010024080B586B000AF7860A0
:102CB000396000237B617B68002B01D101231EE179
:102CC000914B1B6803F00F033A689A4210D98E4B60
:102CD0001B6823F00F028C493B6813430B608A4B3F
:102CE0001B6803F00F033A689A4201D0012306E102
:102CF0007B681B6803F00103002B73D07B685B6863
:102D0000032B29D1814B1B6803F00073002B01D1E9
:102D10000123F4E000F066F938613B697C4A934294
:102D20003FD97A4B9B6803F0F003002B09D07B68F6
:102D30001B6803F00203002B33D07B689B68002BD9
:102D40002FD1724B9B6823F0F003704A43F080034D
:102D5000936080237B6124E07B685B68022B07D152
:102D60006A4B1B6803F40033002B09D10123C6E032
:102D7000664B1B6803F48063002B01D10123BEE086
:102D800000F0CEF838613B69614A934209D95F4B44
:102D90009B6823F0F0035D4A43F080039360802337
:102DA0007B615A4B9B6823F003027B685B68574941
:102DB00013438B60FEF7E6FDF8600AE0FEF7E2FDE4
:102DC0000246FB68D31A41F28832934201D90323A9
:102DD00095E04E4B9B6803F00C027B685B689B00A0
:102DE0009A42EBD17B681B6803F00203002B23D0CF
:102DF0007B681B6803F00403002B05D0434B9B68E2
:102E0000424A43F4E06393607B681B6803F0080365
:102E1000002B07D03D4B9B6823F47C533B4A43F483
:102E2000E0639360394B9B6823F0F0027B689B68FA
:102E3000364913438B6008E07B69802B05D1334B07
:102E40009B68324A23F0F00393602F4B1B6803F01A
:102E50000F033A689A421DD22B4B1B6823F00F02D6
:102E600029493B6813430B60FEF78CFDF8600AE0CC
:102E7000FEF788FD0246FB68D31A41F2883293427E
:102E800001D903233BE0204B1B6803F00F033A6892
:102E90009A42EDD17B681B6803F00403002B08D035
:102EA0001A4B9B6823F4E0627B68DB681749134385
:102EB0008B607B681B6803F00803002B09D0134B61
:102EC0009B6823F460527B681B69DB000F49134346
:102ED0008B6000F025F802460C4B9B681B0903F041
:102EE0000F030C49CB5C03F01F0322FA03F30A4AD9
:102EF00013600A4B1B681846FEF7F8FC0346184699
:102F00001837BD4680BD00BF0020024000100240BF
:102F100000B4C404386F000804000020080000203A
:102F200080B487B000AF2C4B9B6803F00C03042BDC
:102F300002D12A4B3B6147E0274B9B6803F00C030F
:102F4000082B02D1264B3B613EE0234B9B6803F0EC
:102F50000C030C2B36D1204BDB6803F00303FB6022
:102F60001D4BDB681B0903F00F030133BB60FB68DB
:102F7000032B0CD11A4ABB68B2FBF3F3164AD26892
:102F8000120A02F07F0202FB03F37B610CE0134A9A
:102F9000BB68B2FBF3F3104AD268120A02F07F0258
:102FA00002FB03F37B6100BF0B4BDB685B0E03F09E
:102FB000030301335B007B607A697B68B2FBF3F348
:102FC0003B6101E000233B613B6918461C37BD466D
:102FD0005DF8047B704700BF001002400024F4003D
:102FE00000127A0080B487B000AF1E4BDB6803F09C
:102FF00003033B611B4BDB681B0903F00F03013329
:10300000FB603B69032B0CD1174AFB68B2FBF3F35F
:10301000144AD268120A02F07F0202FB03F37B61BA
:103020000CE0124AFB68B2FBF3F30E4AD268120AB4
:1030300002F07F0202FB03F37B6100BF094BDB68F8
:103040005B0E03F0030301335B00BB607A69BB686E
:10305000B2FBF3F37B607B6818461C37BD465DF816
:10306000047B70470010024000127A000024F40034
:1030700080B584B000AF78607B68002B01D101235C
:1030800084E07B6800229A627B6893F85D30DBB253
:10309000002B06D17B68002283F85C207868FEF75D
:1030A000EFF87B68022283F85D207B681B681A6852
:1030B0007B681B6822F040021A607B68DB68B3F50E
:1030C000E06F02D90023FB6002E04FF48053FB6005
:1030D0007B68DB68B3F5706F07D07B68DB68B3F59E
:1030E000E06F02D07B6800229A627B681B6B002B2A
:1030F0000BD17B68DB68B3F5E06F03D97B680222F4
:103100001A6302E07B6801221A637B685A687B6855
:103110009B681A437B681B691A437B685B691A4387
:103120007B689B6903F400731A437B68DB691A436D
:103130007B681B6A42EA03017B689A6A7B681B68AA
:103140000A431A607B689B691B0C03F004027B68CE
:103150005B6A1A437B685B6B1A437B68DB6842EAF5
:1031600003017B681B68FA680A435A607B681B6826
:10317000DA697B681B6822F40062DA617B680022EE
:103180001A667B68012283F85D20002318461037F9
:10319000BD4680BD80B588B002AFF860B9603B60C5
:1031A0001346FB800023FB75FB685B68B3F5827FE9
:1031B00012D1FB689B68002B0ED1FB68042283F8B8
:1031C0005D20FA883B6800931346BA68B968F868CE
:1031D00000F008F9034601E1FB6893F85C30012B2D
:1031E00001D10223FAE0FB68012283F85C20FEF79C
:1031F000C9FB3861FB6893F85D30DBB2012B02D06C
:103200000223FB75E1E0BB68002B02D0FB88002B9A
:1032100002D10123FB75D8E0FB68042283F85D200E
:10322000FB6800221A66FB68BA681A64FB68FA88B1
:10323000A3F84420FB68FA88A3F84620FB68002224
:103240009A63FB6800229A87FB680022DA87FB6892
:103250000022DA64FB6800221A65FB68DB68B3F5BC
:10326000E06F08D9FB681B685A68FB681B6822F48A
:1032700080525A6007E0FB681B685A68FB681B684D
:1032800042F480525A60FB689B68B3F5004F07D147
:10329000FB681B681A68FB681B6822F480421A608E
:1032A000FB681B681B6803F04003402B07D0FB68DA
:1032B0001B681A68FB681B6842F040021A60FB68D2
:1032C000DB68B3F5E06F67D830E0FB681B689B688C
:1032D00003F00103012B17D1FB681B6803F10C02FB
:1032E000FB681B6C1278D2B21A70FB681B6C5A1CFC
:1032F000FB681A64FB68B3F846309BB2013B9AB294
:10330000FB68A3F8462011E0FEF73CFB02463B6950
:10331000D31A3A689A4203D83B68B3F1FF3F02D10F
:103320003B68002B02D10323FB754EE0FB68B3F82A
:1033300046309BB2002BC8D134E0FB681B689B6809
:1033400003F00103012B15D1FB681B68DA68FB68E9
:103350001B6C92B21A80FB681B6C9A1CFB681A6487
:10336000FB68B3F846309BB2013B9AB2FB68A3F806
:10337000462011E0FEF706FB02463B69D31A3A6885
:103380009A4203D83B68B3F1FF3F02D13B68002B60
:1033900002D10323FB7518E0FB68B3F846309BB2FB
:1033A000002BCAD13A693968F86800F0E0FE03469C
:1033B000002B02D0FB6820221A66FB681B6E002BD4
:1033C00002D00123FB7500E000BFFB68012283F8F7
:1033D0005D20FB68002283F85C20FB7D18461837CF
:1033E000BD4680BD80B58AB000AFF860B9607A6034
:1033F0007B8001237B62002387F82330FB6893F8EE
:103400005C30012B01D10223FBE1FB68012283F830
:103410005C20FEF7B7FAF861FB6893F85D30FB7645
:10342000FB685B687B617B887B827B883B82FB7E61
:10343000012B0ED07B69B3F5827F06D1FB689B68B8
:10344000002B02D1FB7E042B03D0022387F823300C
:10345000CDE1BB68002B05D07B68002B02D07B88B8
:10346000002B03D1012387F82330C0E1FB6893F8D8
:103470005D30DBB2042B03D0FB68052283F85D20AE
:10348000FB6800221A66FB687A681A64FB687A880F
:10349000A3F84620FB687A88A3F84420FB68BA6842
:1034A0009A63FB687A88DA87FB687A889A87FB6870
:1034B0000022DA64FB6800221A65FB68DB68B3F55A
:1034C000E06F02D83B8A012B08D9FB681B685A6859
:1034D000FB681B6822F480525A6007E0FB681B6897
:1034E0005A68FB681B6842F480525A60FB681B688C
:1034F0001B6803F04003402B07D0FB681B681A6869
:10350000FB681B6842F040021A60FB68DB68B3F599
:10351000E06F7CD9FB685B68002B02D07B8A012BB3
:1035200069D1FB689B6B1A88FB681B68DA60FB68D3
:103530009B6B9A1CFB689A63FB68DB8F9BB2013B19
:103540009AB2FB68DA8756E0FB681B689B6803F059
:103550000203022B1BD1FB68DB8F9BB2002B16D022
:103560007B6A012B13D1FB689B6B1A88FB681B6875
:10357000DA60FB689B6B9A1CFB689A63FB68DB8FC5
:103580009BB2013B9AB2FB68DA8700237B62FB683F
:103590001B689B6803F00103012B1CD1FB68B3F887
:1035A00046309BB2002B16D0FB681B68DA68FB68BC
:1035B0001B6C92B21A80FB681B6C9A1CFB681A6425
:1035C000FB68B3F846309BB2013B9AB2FB68A3F8A4
:1035D000462001237B62FEF7D5F90246FB69D31A28
:1035E0003A6B9A4207D83B6BB3F1FF3F03D00323FA
:1035F00087F82330FBE0FB68DB8F9BB2002BA3D165
:10360000FB68B3F846309BB2002B9DD1DFE0FB682E
:103610005B68002B03D07B8A012B40F0CB80FB68DA
:10362000DB8F9BB2012B12D9FB689B6B1A88FB685E
:103630001B68DA60FB689B6B9A1CFB689A63FB68EB
:10364000DB8F9BB2023B9AB2FB68DA87B2E0FB6881
:103650009A6BFB681B680C3312781A70FB689B6BC3
:103660005A1CFB689A63FB68DB8F9BB2013B9AB2E2
:10367000FB68DA879EE0FB681B689B6803F0020327
:10368000022B34D1FB68DB8F9BB2002B2FD07B6ADF
:10369000012B2CD1FB68DB8F9BB2012B12D9FB686D
:1036A0009B6B1A88FB681B68DA60FB689B6B9A1C33
:1036B000FB689A63FB68DB8F9BB2023B9AB2FB68A4
:1036C000DA8712E0FB689A6BFB681B680C33127890
:1036D0001A70FB689B6B5A1CFB689A63FB68DB8F54
:1036E0009BB2013B9AB2FB68DA8700237B62FB68DE
:1036F0001B689B6803F00103012B48D1FB68B3F8FA
:1037000046309BB2002B42D0FB68B3F846309BB2E8
:10371000012B23D9FB681B68DA68FB681B6C92B22B
:103720001A80FB681B6C9A1CFB681A64FB68B3F870
:1037300046309BB2023B9AB2FB68A3F84620FB6876
:10374000B3F846309BB2012B1FD8FB681B685A6840
:10375000FB681B6842F480525A6016E0FB681B68E5
:1037600003F10C02FB681B6C1278D2B21A70FB6872
:103770001B6C5A1CFB681A64FB68B3F846309BB29A
:10378000013B9AB2FB68A3F8462001237B62FEF757
:10379000F9F80246FB69D31A3A6B9A4203D83B6B9D
:1037A000B3F1FF3F02D13B6B002B03D1032387F81A
:1037B00023301CE0FB68DB8F9BB2002B7FF45BAFF8
:1037C000FB68B3F846309BB2002B7FF454AFFA6924
:1037D000396BF86800F023FD0346002B06D0012367
:1037E00087F82330FB6820221A6600E000BFFB68E0
:1037F000012283F85D20FB68002283F85C2097F8A3
:10380000233018462837BD4680BD000080B586B0FD
:1038100000AFF860B9601346FB800023FB75FB68BE
:103820009B68002B10D1FB685B68B3F5827F0BD1DE
:10383000FB68042283F85D20FB88BA68B968F868E1
:1038400000F08CF8034681E0FB6893F85C30012BB4
:1038500001D102237AE0FB68012283F85C20FB6837
:1038600093F85D30DBB2012B02D00223FB7568E0D8
:10387000BB68002B02D0FB88002B02D10123FB7513
:103880005FE0FB68042283F85D20FB6800221A6673
:10389000FB68BA681A64FB68FA88A3F84420FB68DE
:1038A000FA88A3F84620FB6800229A63FB6800228E
:1038B0009A87FB680022DA87FB6800221A65FB689A
:1038C000DB68B3F5E06F0BD9FB681B685A68FB68CF
:1038D0001B6822F480525A60FB681E4ADA640AE0D0
:1038E000FB681B685A68FB681B6842F480525A6088
:1038F000FB68194ADA64FB689B68B3F5004F07D18F
:10390000FB681B681A68FB681B6822F480421A6017
:10391000FB681B685A68FB681B6842F060025A60CB
:10392000FB681B681B6803F04003402B08D0FB6852
:103930001B681A68FB681B6842F040021A6000E0CE
:1039400000BFFB68002283F85C20FB7D1846183717
:10395000BD4680BD753F0008253F000880B487B094
:1039600000AFF860B9607A607B800023FB75FB686C
:1039700093F85C30012B01D1022391E0FB68012216
:1039800083F85C20FB6893F85D30BB75FB685B686F
:103990003B61BB7D012B0DD03B69B3F5827F06D126
:1039A000FB689B68002B02D1BB7D042B02D0022355
:1039B000FB7570E0BB68002B05D07B68002B02D044
:1039C0007B88002B02D10123FB7564E0FB6893F830
:1039D0005D30DBB2042B03D0FB68052283F85D2049
:1039E000FB6800221A66FB68BA689A63FB687A88EB
:1039F0009A87FB687A88DA87FB687A681A64FB68BA
:103A00007A88A3F84420FB687A88A3F84620FB68EC
:103A1000DB68B3F5E06F06D9FB68244ADA64FB681B
:103A2000234A1A6505E0FB68224ADA64FB68224AE9
:103A30001A65FB68DB68B3F5E06F02D87B88012B61
:103A400008D9FB681B685A68FB681B6822F480521F
:103A50005A6007E0FB681B685A68FB681B6842F401
:103A600080525A60FB681B685A68FB681B6842F00A
:103A7000E0025A60FB681B681B6803F04003402BA0
:103A800008D0FB681B681A68FB681B6842F040029C
:103A90001A6000E000BFFB68002283F85C20FB7D19
:103AA00018461C37BD465DF8047B70475F3E000832
:103AB000C53E00080F3D0008CD3D000880B588B028
:103AC00000AF78607B681B685B68FB617B681B6884
:103AD0009B68BB61BB699B0903F00103002B0FD1FD
:103AE000BB6903F00103002B0AD0FB699B0903F0BB
:103AF0000103002B04D07B68DB6C78689847D7E023
:103B0000BB695B0803F00103002B0AD0FB69DB09EA
:103B100003F00103002B04D07B681B6D7868984785
:103B2000C6E0BB695B0903F00103002B0CD1BB6944
:103B30009B0903F00103002B06D1BB691B0A03F0AC
:103B40000103002B00F0B480FB695B0903F0010363
:103B5000002B00F0AD80BB699B0903F00103002B33
:103B600023D07B6893F85D30DBB2032B11D07B68E8
:103B70001B6E43F004027B681A6600237B617B683E
:103B80001B68DB687B617B681B689B687B617B696A
:103B90000BE000233B617B681B68DB683B617B6853
:103BA0001B689B683B613B6982E0BB695B0903F072
:103BB0000103002B14D07B681B6E43F001027B686D
:103BC0001A660023FB607B681B689B68FB607B6850
:103BD0001B681A687B681B6822F040021A60FB6849
:103BE000BB691B0A03F00103002B0CD07B681B6E22
:103BF00043F008027B681A660023BB607B681B6881
:103C00009B68BB60BB687B681B6E002B4FD07B68DA
:103C10001B685A687B681B6822F0E0025A607B6868
:103C2000012283F85D20FB6903F00203002B04D11D
:103C3000FB6903F00103002B34D07B681B685A68D2
:103C40007B681B6822F003025A607B689B6D002B27
:103C500011D07B689B6D184A9A637B689B6D1846F0
:103C6000FDF7CDFF0346002B05D07B681B6E43F0AC
:103C700040027B681A667B685B6D002B16D07B6800
:103C80005B6D0D4A9A637B685B6D1846FDF7B7FF65
:103C90000346002B0AD07B681B6E43F040027B6812
:103CA0001A6603E0786800F013F800E000BF00BF78
:103CB0002037BD4680BD00BFE53C000880B483B01E
:103CC00000AF786000BF0C37BD465DF8047B7047DD
:103CD00080B483B000AF786000BF0C37BD465DF89C
:103CE000047B704780B584B000AF78607B689B6AC6
:103CF000FB60FB680022A3F84620FB680022DA87FD
:103D0000F868FFF7E5FF00BF1037BD4680BD80B5FE
:103D100082B000AF78607B68B3F846309BB2012B6D
:103D200023D97B681B68DA687B681B6C92B21A80A7
:103D30007B681B6C9A1C7B681A647B68B3F84630FE
:103D40009BB2023B9AB27B68A3F846207B68B3F82B
:103D500046309BB2012B1FD17B681B685A687B6879
:103D60001B6842F480525A6016E07B681B6803F1BE
:103D70000C027B681B6C1278D2B21A707B681B6CC9
:103D80005A1C7B681A647B68B3F846309BB2013BCF
:103D90009AB27B68A3F846207B68B3F846309BB2A2
:103DA000002B0FD17B681B685A687B681B6822F068
:103DB00060025A607B68DB8F9BB2002B02D178686F
:103DC00000F073FA00BF0837BD4680BD80B582B0F1
:103DD00000AF78607B68DB8F9BB2012B12D97B68C8
:103DE0009B6B1A887B681B68DA607B689B6B9A1CEC
:103DF0007B689A637B68DB8F9BB2023B9AB27B68DD
:103E0000DA8712E07B689A6B7B681B680C33127848
:103E10001A707B689B6B5A1C7B689A637B68DB8F8C
:103E20009BB2013B9AB27B68DA877B68DB8F9BB2DF
:103E3000002B10D17B681B685A687B681B6822F0D6
:103E400080025A607B68B3F846309BB2002B02D1E7
:103E5000786800F02AFA00BF0837BD4680BD80B5FB
:103E600082B000AF78607B681B68DA687B681B6C87
:103E700092B21A807B681B6C9A1C7B681A647B6800
:103E8000B3F846309BB2013B9AB27B68A3F8462058
:103E90007B68B3F846309BB2002B0FD17B681B6860
:103EA0005A687B681B6822F040025A607B68DB8F8F
:103EB0009BB2002B02D1786800F0F7F900BF0837F9
:103EC000BD4680BD80B582B000AF78607B689B6BDB
:103ED0001A887B681B68DA607B689B6B9A1C7B681E
:103EE0009A637B68DB8F9BB2013B9AB27B68DA876F
:103EF0007B68DB8F9BB2002B10D17B681B685A68F4
:103F00007B681B6822F080025A607B68B3F84630F9
:103F10009BB2002B02D1786800F0C7F900BF0837C8
:103F2000BD4680BD80B582B000AF78607B681B68FD
:103F300003F10C027B681B6C1278D2B21A707B689A
:103F40001B6C5A1C7B681A647B68B3F846309BB2C2
:103F5000013B9AB27B68A3F846207B68B3F84630F1
:103F60009BB2002B02D1786800F0E1F900BF08375E
:103F7000BD4680BD80B582B000AF78607B681B68AD
:103F8000DA687B681B6C92B21A807B681B6C9A1C87
:103F90007B681A647B68B3F846309BB2013B9AB2E7
:103FA0007B68A3F846207B68B3F846309BB2002BB1
:103FB00002D1786800F0BBF900BF0837BD4680BD6C
:103FC00080B584B000AFF860B9603B601346FB7108
:103FD0004CE03B68B3F1FF3F48D0FDF7D3FC02460D
:103FE000BB69D31A3A689A4202D93B68002B3DD18B
:103FF000FB681B685A68FB681B6822F0E0025A6085
:10400000FB685B68B3F5827F11D1FB689B68B3F5F1
:10401000004F04D0FB689B68B3F5806F07D1FB6845
:104020001B681A68FB681B6822F040021A60FB6874
:104030009B6AB3F5005F0FD1FB681B681A68FB68C9
:104040001B6822F400521A60FB681B681A68FB6840
:104050001B6842F400521A60FB68012283F85D205D
:10406000FB68002283F85C2003230FE0FB681B68D9
:104070009A68BB681340BA689A420CBF01230023B8
:10408000DBB21A46FB799A42A3D1002318461037B7
:10409000BD4680BD80B584B000AFF860B9607A607D
:1040A0003B6057E0BB68B3F5C06F06D17B68002B5F
:1040B00003D1FB681B680C331B783B68B3F1FF3FEF
:1040C00048D0FDF75FFC0246BB69D31A3A689A42B2
:1040D00002D93B68002B3DD1FB681B685A68FB681E
:1040E0001B6822F0E0025A60FB685B68B3F5827FD0
:1040F00011D1FB689B68B3F5004F04D0FB689B6847
:10410000B3F5806F07D1FB681B681A68FB681B68F2
:1041100022F040021A60FB689B6AB3F5005F0FD182
:10412000FB681B681A68FB681B6822F400521A605F
:10413000FB681B681A68FB681B6842F400521A602F
:10414000FB68012283F85D20FB68002283F85C2075
:10415000032308E0FB681B689A68BB6813407A6811
:104160009A429FD1002318461037BD4680BD80B5C6
:1041700086B002AFF860B9607A60FB685B68B3F53F
:10418000827F11D1FB689B68B3F5004F04D0FB68B8
:104190009B68B3F5806F07D1FB681B681A68FB68E2
:1041A0001B6822F040021A607B680093BB68002203
:1041B0008021F868FFF704FF0346002B07D0FB6857
:1041C0001B6E43F02002FB681A66032323E0FB68A2
:1041D0005B68B3F5827F1DD1FB689B68B3F5004F28
:1041E00004D0FB689B68B3F5806F13D17B680093A4
:1041F000BB6800224FF4C061F868FFF74BFF03462D
:10420000002B07D0FB681B6E43F02002FB681A6688
:10421000032300E0002318461037BD4680BD80B55B
:1042200086B002AFF860B9607A607B680093BB68C3
:1042300000224FF4C051F868FFF72CFF0346002B13
:1042400007D0FB681B6E43F02002FB681A6603234D
:1042500027E07B680093BB6800228021F868FFF7A5
:10426000AFFE0346002B07D0FB681B6E43F0200215
:10427000FB681A66032314E07B680093BB68002286
:104280004FF4C061F868FFF705FF0346002B07D025
:10429000FB681B6E43F02002FB681A66032300E0F4
:1042A000002318461037BD4680BD80B584B000AFEE
:1042B0007860FDF767FBF8607B681B685A687B686D
:1042C0001B6822F020025A60FA6864217868FFF7C0
:1042D000A6FF0346002B05D07B681B6E43F020022F
:1042E0007B681A667B681B6E002B15D17B6893F880
:1042F0005D30DBB2042B07D17B68012283F85D209F
:104300007868FCF7AFFD0EE07B68012283F85D2042
:104310007868FFF7D3FC06E07B68012283F85D2014
:104320007868FFF7D5FC00BF1037BD4680BD80B56B
:1043300082B000AF78607B681B685A687B681B6836
:1043400022F060025A60FDF71DFB03461A46642105
:104350007868FFF70CFF0346002B05D07B681B6EC7
:1043600043F020027B681A667B68012283F85D2097
:104370007B681B6E002B03D17868FCF773FD02E0AD
:104380007868FFF7A5FC00BF0837BD4680BD80B444
:1043900083B000AF786039607B683A689A6200BF8A
:1043A0000C37BD465DF8047B704780B483B000AF26
:1043B000786039607B683A68DA6200BF0C37BD46C6
:1043C0005DF8047B704780B483B000AF78603960DB
:1043D0007B683A681A6300BF0C37BD465DF8047B02
:1043E000704780B483B000AF78607B685B6943F04E
:1043F00001027B685A6100BF0C37BD465DF8047B43
:104400007047000080B584B000AF786039607B6889
:104410001B68FB607B68394A93420FD07B68B3F11D
:10442000804F0BD07B68364A934207D07B68354A71
:10443000934203D07B68344A934206D1FB6823F051
:1044400070023B685B681343FB607B682B4A9342B6
:104450001BD07B68B3F1804F17D07B68284A93420A
:1044600013D07B68274A93420FD07B68264A934239
:104470000BD07B68254A934207D07B68244A93423D
:1044800003D07B68234A934206D1FB6823F4407231
:104490003B68DB681343FB607B68FA681A603B6823
:1044A0009B6819467868FFF780FF3B681B881946B0
:1044B0007868FFF76CFF7B68104A93420FD07B68E7
:1044C000114A93420BD07B68104A934207D07B6815
:1044D0000F4A934203D07B680E4A934205D13B6852
:1044E0001B6919467868FFF76EFF7868FFF779FF58
:1044F000002318461037BD4680BD00BF002C014088
:104500000004004000080040003401400040014029
:104510000044014000480140014B1868704700BF4B
:104520003000002070B50D4D0D4C641BA41000260A
:10453000A64209D10B4D0C4C02F0F0FC641BA410F8
:104540000026A64205D170BD55F8043B98470136B8
:10455000EEE755F8043B98470136F2E72C73000864
:104560002C7300082C7300083073000802440346C3
:10457000934200D1704703F8011BF9E72DE9FF478B
:1045800055EC104B002D0E4619462B46BBBF05F1CE
:1045900000431D4600232D230B700D9BDDF830A03A
:1045A000914623F02008BCBF22461446B8F1460FBE
:1045B00005D0B8F1450F00D10136022100E00321FA
:1045C00003AB019302AB009345EC104B53463246CC
:1045D00000F0CAFCB8F1470F074602D119F0010FED
:1045E00022D0B8F1460F07EB060910D13B78302BEB
:1045F0000AD10022002320462946FCF78DFA18B97B
:10460000C6F10106CAF80060DAF8003099440022C9
:10461000002320462946FCF77FFA08B1CDF80C901C
:104620003022039B4B4507D3039B0E9ADB1B384676
:10463000136004B0BDE8F087591C03911A70F0E7CD
:10464000F7B503460029B8BF494203F8022BB4BFAF
:104650002D222B22092942702ADD0DF10704A446E0
:104660000A27A6460A4691FBF7F607FB16153035D2
:10467000632A04F1FF340EF8015C3146F1DC30317D
:10468000AEF1020504F8011C441C294661450AD319
:104690000DF10902A2EB0E02654588BF002213440A
:1046A000181A03B0F0BD11F8012B04F8012FEDE743
:1046B000302330318370C170031DF1E72DE9F04FD5
:1046C0002DED028B8DB00C46DDF8608016461F463E
:1046D000054601F035FAD0F800A05046FBF7A0FDE2
:1046E00000230A9323680593D8F8003094F818B093
:1046F000073323F0070303F10802C8F80020D3E9C9
:104700000023C4E91223D4E9128929F00043079356
:10471000CDF8188008EE100A9F4BDDE906014FF036
:10472000FF32FCF72BFA88BBDDE906019A4B4FF00C
:10473000FF32FCF705FA48BB0022002340464946F9
:10474000FCF7F4F910B12D2384F84330934B9448CF
:10475000BBF1470F94BF9846804603232361059B16
:1047600023F0040222604FF00009009733460BAAA1
:104770002146284600F0D8F9013040F090804FF0F3
:10478000FF300DB0BDEC028BBDE8F08F42464B46CA
:1047900040464946FCF7F2F940B14B46002BBCBFFE
:1047A0002D2384F843307F487F4BD1E763680BF0BB
:1047B000DF0206925A1C3FD106236360059B6168A5
:1047C00043F48062002303930AABCDE901B309AB44
:1047D00049EC108B009322600DF123032846FFF76C
:1047E000CDFE069B0999472B804608D1C81C02DBE9
:1047F0006368994241DDABF1020B5FFA8BFBBBF1C1
:10480000650F20D801395A4604F150000991FFF78D
:1048100017FF0A9A1318012A8146236102DC2268D5
:10482000D20701D5013323619DF82330002B9CD0A2
:104830002D2384F8433098E7069A472ABED1002BEF
:10484000BCD10123B9E7BBF1660F18D10029636819
:104850000BDD216113B92268D00702D501330B4467
:104860002361A1654FF00009DEE713B92268D20782
:1048700001D50233F4E70123F2E74FF0670B0A9BFF
:10488000994205DB23682161D807EAD54B1CE7E78D
:104890000029D4BFC1F1020201221344E0E72368DA
:1048A0005A0507D42369424631462846B8470130A5
:1048B0002CD164E7BBF1650F40F2E080D4E912012E
:1048C00000220023FCF728F9002834D0374A0123BE
:1048D00031462846B84701303FF451AFDDE909239E
:1048E0009A4202DB2368D80710D518EE103A5246D8
:1048F00031462846B84701303FF441AF4FF0000839
:1049000004F11A090A9B013B434509DC23689B0714
:1049100000F10581E0680B9B9842B8BF184630E76C
:1049200001234A4631462846B84701303FF427AFB5
:1049300008F10108E6E7099B002B39DC1B4A01233B
:1049400031462846B84701303FF419AFDDE9092365
:10495000134302D12368D907D8D518EE103A52462E
:1049600031462846B84701303FF409AF4FF00009FF
:1049700004F11A0A099B5B424B4501DC0A9B92E752
:104980000123524631462846B84701303FF4F7AE7E
:1049900009F10109EEE700BFFFFFEF7F4C6F000850
:1049A000506F0008586F0008546F00085C6F0008D3
:1049B0000A9AA36D9A42A8BF1A46002A914637DC8C
:1049C0004FF0000B29EAE97904F11A02A36D05936F
:1049D000A3EB09035B4533DCDDE909239A423BDBAA
:1049E0002368DA0738D40A9A059B0999D31AA2EBEF
:1049F00001099945A8BF9946B9F1000F35DC4FF080
:104A0000000829EAE97904F11A0ADDE909239B1A69
:104A1000A3EB090343457FF779AF012352463146A3
:104A20002846B84701303FF4AAAE08F10108ECE788
:104A30001346314642462846B8470130C0D19EE66B
:104A40000123314628460592B84701303FF497AE1E
:104A5000059A0BF1010BB9E718EE103A52463146B0
:104A60002846B8470130BED189E6059A4B464244F4
:104A700031462846B8470130C1D180E60A9A012A5A
:104A800001DCDB0738D50123424631462846B847CA
:104A900001303FF474AE18EE103A524631462846C3
:104AA000B84701303FF46BAED4E912010022002375
:104AB000FCF732F8D8B90A9B08F10102013B3146F4
:104AC0002846B84701300ED159E6012352463146F7
:104AD0002846B84701303FF452AE08F101080A9B5E
:104AE000013B4345F1DC4B4604F15002DCE64FF05C
:104AF000000804F11A0AF2E701234246DFE7012326
:104B00004A4631462846B84701303FF438AE08F1EE
:104B10000108E3680B995B1A4345F0DCFAE64FF0B5
:104B2000000804F11909F4E72DE9F0471646994603
:104B30008A680B69DDF820809342B8BF1346336062
:104B400091F8432007460C460AB1013333602368CD
:104B5000990642BF336802333360256815F00605B5
:104B600006D104F1190AE36832689B1AAB4226DCCD
:104B700094F84320131E226818BF012392062BD4F9
:104B800004F1430249463846C04701301ED023682D
:104B9000E568326803F00603042B08BFAD1AA3686A
:104BA00022690CBF25EAE57500259342C4BF9B1A14
:104BB000ED1800261A34B5421AD1002008E001236E
:104BC000524649463846C047013003D14FF0FF30C6
:104BD000BDE8F0870135C6E7E1185A1C302081F89E
:104BE0004300224494F8451082F843100233C7E78B
:104BF0000123224649463846C0470130E6D00136F7
:104C0000D9E700002DE9FF470C469146277E0C9915
:104C1000782F80469A4604F1430207D8622F0AD8BB
:104C2000002F00F0D880582F00F0A38004F1420636
:104C300084F842703AE0A7F16303152BF6D801A07F
:104C400050F823F09D4C0008B14C00082D4C000892
:104C50002D4C00082D4C00082D4C0008B14C0008CC
:104C60002D4C00082D4C00082D4C00082D4C000840
:104C7000BD4D0008E14C00089F4D00082D4C000878
:104C80002D4C0008DF4D00082D4C0008E14C0008B9
:104C90002D4C00082D4C0008A74D00080B681A1D6C
:104CA0001B680A6004F1420684F842300123A3E045
:104CB000256808682E0600F104030AD505680B6014
:104CC000002D03DA2D236D4284F843305E480A2319
:104CD00019E015F0400F05680B6018BF2DB2EFE723
:104CE0000B682568181D0860280601D51D6802E0BC
:104CF0006906FBD51D8854486F2F0CBF08230A2373
:104D0000002184F843106668A660002EA2BF2168C7
:104D100021F0040121600DB9002E4DD01646B5FBDF
:104D2000F3F103FB1157C75D06F8017D2F46BB4227
:104D30000D46F4D9082B0BD12368DF0708D523696A
:104D400061689942DEBF302306F8013C06F1FF3668
:104D5000921B2261CDF800A04B4603AA2146404693
:104D6000FFF7E2FE01304CD14FF0FF3004B0BDE858
:104D7000F087354884F8457023680E681F0656F89A
:104D8000045B0E6014D5D90744BF43F020032360B1
:104D90001DB9236823F0200323601023B0E72368A4
:104DA00043F0200323607823284884F84530E3E764
:104DB0005E0648BFADB2E6E71646BBE70B6826685D
:104DC00060691D1D0D6035061B6801D5186002E085
:104DD0007106FBD51880002323611646BAE70B68DD
:104DE0001A1D0A601E68626800213046FBF720FA2F
:104DF00008B1801B606063682361002384F843303E
:104E0000A8E72369324649464046D0470130ABD037
:104E100023689B0713D4E068039B9842B8BF1846E9
:104E2000A4E70123324649464046D04701309BD093
:104E30000135E36803995B1AAB42F2DCEBE700252E
:104E400004F11906F5E700BF5E6F00086F6F0008F8
:104E50002DE9F74F03690C69A3420746C0F2818030
:104E6000013C01F1140800F1140505EB84030193E2
:104E700058F8243055F8242001339A424FEA840B25
:104E800008EB8409B2FBF3F631D34FF0000E404635
:104E9000AC46F24650F8042B93B206FB03E34FEA0C
:104EA000134E9BB2AAEB0303120CDCF800A006FB26
:104EB00002E213FA8AF34FEA124E1FFA82FADCF882
:104EC0000020CAEB124202EB23429BB243EA0243A8
:104ED00081454CF8043B4FEA224ADBD255F80B30AF
:104EE0002BB9019B043B9D421A462ED33C613846A8
:104EF00001F0BEF8002824DB013628464FF0000CF4
:104F000058F8042BD0F800E093B2ACEB0303120C7A
:104F100013FA8EF3C2EB1E4202EB23429BB243EA2A
:104F20000243C14540F8043B4FEA224CE8D255F811
:104F3000242005EB840322B9043B9D421A460AD380
:104F40003C61304603B0BDE8F08F1268043B002A94
:104F5000CCD1013CC7E71268043B002AF0D1013CE8
:104F6000EBE70020EEE700002DE9F04F2DED028B7E
:104F700057EC106B95B0456ADDF880800591CDE95E
:104F80000267044609920F9375B9102000F0DCFD0A
:104F90000246606220B9B24BEA21B24801F032FA0F
:104FA000C0E901550560C560636A196851B15A6866
:104FB0004A60012393408B60204600F01BFE636A29
:104FC00000221A603B1EB9BF23F000430393002365
:104FD000C8F80030DDF80C90A34BBCBF0122C8F824
:104FE000002033EA09031BD10F9A42F20F731360BA
:104FF000C9F31303334300F07A85219B63B99B4BBC
:1050000024E09B4B00930833219A1360009815B05D
:10501000BDEC028BBDE8F08F944B00930333F3E7B4
:105020009DED027B002251EC170B00238DED0A7BD6
:10503000FBF772FD804658B10F9A01231360219B44
:10504000002B00F051858B481860431E0093DDE76C
:105050009DED0A0B12AA13A9204601F0ADF8C9F381
:105060000A558346002D7CD00B9BCDF84080C3F3BE
:105070001303DDE90A6743F07F5747F44017A5F2B1
:10508000FF357D4B002230463946FBF725F96EA3EC
:10509000D3E90023FBF7D8FA6DA3D3E90023FBF78C
:1050A0001DF9064628460F46FBF764FA6AA3D3E9C2
:1050B0000023FBF7C9FA02460B4630463946FBF798
:1050C0000DF906460F46FBF76FFD002282460023CE
:1050D00030463946FBF72AFD48B15046FBF74AFAFD
:1050E00032463B46FBF718FD08B90AF1FF3ABAF120
:1050F000160F54D8614B03EBCA03D3E90023DDE953
:105100000A01FBF713FD00284BD00AF1FF3A0023F8
:105110000E93129B5D1B6B1E049343BF0023C5F1CE
:10512000010804934FF00008BAF1000F3BDB049B29
:10513000CDF834A05344049300230693059B092B18
:1051400069D8052BC4BF043B0593059BA3F102035B
:10515000CCBF00250125032B69D8DFE803F02C4ED6
:105160004C5ADDE912531D4405F23243202BC1BFD6
:10517000C3F1400305F2124009FA03F326FA00F0E6
:10518000DABFC3F1200306FA03F01843FBF7E2F994
:1051900001230646A1F1F877013D109371E7012341
:1051A000B6E70E90B5E7CAF1000306930023A8EB1B
:1051B0000A080D93C2E700230893099B002B39DCF2
:1051C0004FF00109CDF804904B46CDF82490606A69
:1051D00000224260042202F114069E4241682FD947
:1051E000204600F0C7FC009000284BD1244B02461B
:1051F0004FF4D571D1E60123DEE700230893099B24
:105200000AEB030909F10103012B0193B8BF012344
:10521000DDE70123F2E701250023059308954FF010
:10522000FF390022CDF8049012230992CFE7012321
:105230000893F4E7DDF82490CDF804904B46C6E7D8
:10524000013141605200C6E761436F63A787D23FD7
:10525000B3C8608B288AC63FFB799F501344D33F65
:105260008D6F0008A46F00080000F07F896F0008B0
:10527000806F00085D6F00080000F83FA070000814
:1052800003700008636A009A1A60019B0E2B00F2FB
:10529000AD80002D00F0AA80BAF1000F36DDC34AC0
:1052A0000AF00F0302EBC30393ED007B1AF4807F37
:1052B0004FEA2A17B0EE478AF0EE678A16D0BC4B49
:1052C000DDE90A01D3E90823FBF7E8FACDE9020199
:1052D00007F00F070325B64E57B9DDE9020153EC7D
:1052E000182BFBF7DBFACDE9020129E00225F2E7F2
:1052F000F90708D551EC180BD6E90023FBF7A4F900
:1053000041EC180B01357F100836E5E700F0A68068
:10531000CAF10006A54BA64F06F00F0203EBC2032D
:10532000D3E90023DDE90A01FBF78EF9CDE902019B
:10533000361100230225002E40F08580002BD2D1AB
:105340000E9B002B00F08C80DDE90267994B002258
:1053500030463946FBF7EAFB002800F08180019BCC
:10536000002B7DD0B9F1000F3CDD0AF1FF3307932C
:105370000022914B30463946FBF766F9CDE9020130
:105380000135CDF83090DDE902672846FBF7F2F8E9
:1053900032463B46FBF758F9884B0022FAF79EFF4E
:1053A000A1F15073CDE9020103930C9B002B5CD15A
:1053B000834B002230463946FAF78EFFDDE902239F
:1053C00006460F46FBF7D0FB002840F09682DDE949
:1053D0000221304601F100433946FBF7A7FB0028C4
:1053E00040F08882DDE90A23CDE90223139B002BDC
:1053F000C0F25881BAF10E0F00F354816B4B03EBEE
:10540000CA03D3E90089099B002B80F2E380019B4A
:10541000002B00F3DF8040F06D82694B0022404694
:105420004946FBF711F9DDE90223FBF793FB019EE7
:105430003746002840F04382009D312305F8013BA8
:105440000AF1010A3FE2F20705D5D7E90023FBF78D
:10545000FBF801350123761008376CE702256FE76A
:10546000019BCDF81CA00C938DE700990C980C9A29
:105470004E4B9DED027B014402910899B0EE478AA4
:10548000F0EE678A03EBC20353E90223002945D0FB
:105490004C490020FBF702FA53EC182BFAF71CFFDB
:1054A000009D41EC180B39463046FBF77DFB0C9014
:1054B000FBF760F802460B4630463946FAF70CFF18
:1054C0000C9B303305F8013B53EC182B06460F4676
:1054D000FBF72CFB002865D132463B4635490020BE
:1054E000FAF7FAFE53EC182BFBF720FB002840F0EC
:1054F000B980029B9D423FF475AF2F4B51EC180BC6
:105500000022FBF7A1F82C4B41EC180B002230468F
:105510003946FBF799F806460F46C4E751EC170BDE
:10552000FBF792F8029B009D0C9341EC180B394657
:105530003046FBF739FB1190FBF71CF802460B468F
:1055400030463946FAF7C8FE119B303305F8013B67
:10555000029B9D4206460F464FF0000234D1194B84
:1055600051EC180BFAF7BAFE02460B4630463946A4
:10557000FBF7FAFA002875D153EC182B11490020DB
:10558000FAF7AAFE02460B4630463946FBF7CEFA3A
:1055900000283FF427AF0C9D6B1E0C9315F8013CBF
:1055A000302BF8D0DDF81CA04AE000BFA070000846
:1055B000787000080000F03F0000244000001C400C
:1055C000000014400000E03FAF4BFBF73DF80646FB
:1055D0000F46ACE7DDE90267009D42464B46304688
:1055E0003946FBF75BF9FBF7DFFA0290FAF7C2FFE7
:1055F00042464B46FBF728F802460B4630463946F2
:10560000FAF76AFE029E019F303605F8016B009E94
:10561000AE1BB74202460B4637D1FAF75FFE424651
:105620004B4606460F46FBF79FFAC8B942464B4623
:1056300030463946FBF770FA10B1029BD9070FD4F8
:105640002046594600F0D6FA00232B700F9B0AF132
:1056500001001860219B002B3FF4D8AC1D60D5E4FD
:10566000CDF81CA02B461D4613F8012D392A08D170
:10567000009A9A42F7D1079A009901320792302294
:105680000A701A7801321A708CE77F4B0022FAF701
:10569000DBFF0022002306460F46FBF73DFA0028F9
:1056A0009BD0CDE7089A002A00F0C480059A012A11
:1056B00000F3A880109A002A00F0A08003F2334380
:1056C000069E4546049A01211A44204698440492B5
:1056D00000F04CFB0746002D0BDD049B002B08DD82
:1056E000AB42049AA8BF2B46A8EB0308ED1AD31AC5
:1056F0000493069BFBB1089B002B00F09F80002EBB
:1057000011DD39463246204600F0ECFB5A46014690
:105710000746204600F040FB59460790204600F01F
:1057200069FA079B9B46069B9A1B04D05946204664
:1057300000F0D8FB83460121204600F017FB0D9BAB
:10574000002B06467CDD1A460146204600F0CAFBC7
:10575000059B012B064676DD00230693336906EB95
:105760008303186900F0B2FAC0F12000049B1844CA
:1057700010F01F0000F08680C0F12003042B7FDDB5
:10578000C0F11C00049B0344804405440493B8F119
:10579000000F05DD59464246204600F0FDFB8346DA
:1057A000049B002B05DD31461A46204600F0F4FB31
:1057B00006460E9B002B69D03146584600F058FC37
:1057C000002863DA002359460A22204600F034FA02
:1057D000089B0AF1FF3A8346002B00F08F8139467F
:1057E00000230A22204600F027FAB9F1000F0746ED
:1057F00000F38E80059B022B50DC89E0129BC3F1E5
:1058000036035DE7019B5E1E069BB342BFBF069B4E
:105810000696F21A0D9BB6BF9B189E1B0D93019B1B
:10582000B8BF0026002BB5BFA8EB0305019B0023E2
:10583000454647E7069E089F45464CE7069A75E7AA
:10584000059B012B18DC029BB3B9039BC3F3130325
:10585000A3B9039B23F000431B0D1B052BB1049B35
:105860000133049308F10108012306930D9B002BDB
:105870007FF474AF012079E70023F6E7029BF4E799
:1058800085D018461C307DE700002440019B002B8A
:1058900038DC059B022B35DDDDF80490B9F1000FF3
:1058A0000DD131464B460522204600F0C5F9014690
:1058B0000646584600F0DCFB00283FF7BDAD099BCB
:1058C000009D6FEA030A4FF000083146204600F0C1
:1058D00091F9002F3FF4B4AEB8F1000F05D0B845F0
:1058E00003D04146204600F085F93946204600F0B5
:1058F00081F9A5E600263746E1E70C9EDDF81CA0FD
:10590000374699E5089BDDF80490002B00F0FD80F8
:10591000002D05DD39462A46204600F03DFB0746AE
:10592000069B002B5CD07968204600F023F90546E1
:1059300028B9804B024640F2EA21FFF72EBB3A69B4
:105940000232920007F10C010C3000F005F901223F
:105950002946204600F020FB009B01330193009B69
:105960004B440793029B03F00103B8460693074696
:10597000019B3146013B58460293FFF769FA034603
:105980003033049041465846089300F071FB3A4684
:1059900081463146204600F087FBC268089B0546D9
:1059A00002BB0146584600F063FB089B02462946AD
:1059B0002046CDE9083200F01DF9059B099A019DAA
:1059C00043EA0201069B0B43089B0DD1392B29D0DA
:1059D000B9F1000F01DD049B3133029A137074E7B3
:1059E0003846B9E70122E2E7B9F1000F06DB059975
:1059F00041EA0909069959EA010120D1002AECDDA2
:105A0000594601222046019300F0C6FA31468346EA
:105A100000F02EFB0028019B02DCDED1DA07DCD58A
:105A2000392BD8D1029A392313702B461D46013BDE
:105A300015F8012C392A50D001321A7045E7002A96
:105A400003DD392BEED00133C7E7019A079902F83D
:105A5000013C8A422AD0594600230A22204600F0FF
:105A6000EBF8B84583464FF000034FF00A02414679
:105A7000204607D100F0E0F880460746019B01333D
:105A8000019375E700F0D8F83946804600230A22D2
:105A9000204600F0D1F80746F0E7B9F1000F009A70
:105AA000CCBF4D46012515444FF000085946012250
:105AB0002046019300F070FA3146834600F0D8FA90
:105AC0000028B2DC02D1019BDB07AED42B461D4679
:105AD00013F8012D302AFAD0F7E6009A9A42A5D1A0
